{
  "_format": "hh3-artifact-1",
  "contractName": "TestContract",
  "sourceName": "contracts/TestContract.sol",
  "abi": [
    {
      "inputs": [
        {
          "internalType": "uint256",
          "name": "_testNumber",
          "type": "uint256"
        }
      ],
      "stateMutability": "nonpayable",
      "type": "constructor"
    },
    {
      "inputs": [],
      "name": "pingTest",
      "outputs": [],
      "stateMutability": "nonpayable",
      "type": "function"
    }
  ],
  "bytecode": "0x6080604052348015600e575f5ffd5b506040516101bd3803806101bd833981016040819052602b916031565b5f556047565b5f602082840312156040575f5ffd5b5051919050565b610169806100545f395ff3fe608060405234801561000f575f5ffd5b5060043610610029575f3560e01c806307dc906c1461002d575b5f5ffd5b610035610037565b005b6100766040518060400160405280601881526020017f436f6e7472616374207761732070696e6765642062793a20000000000000000081525033610078565b565b6100bd828260405160240161008e9291906100ec565b60408051601f198184030181529190526020810180516001600160e01b031663319af33360e01b1790526100c1565b5050565b6100ca816100cd565b50565b5f6a636f6e736f6c652e6c6f6790505f5f835160208501845afa505050565b604081525f83518060408401528060208601606085015e5f60608285018101919091526001600160a01b03949094166020840152601f01601f19169091019091019291505056fea264697066735822122097cd04786f9e488fc19fbe5e46d442b5c2a0b6f5a7d72f269cebbb4f6a9bb00364736f6c634300081c0033",
  "linkReferences": {},
  "deployedLinkReferences": {},
  "immutableReferences": {},
  "inputSourceName": "project/contracts/TestContract.sol",
  "buildInfoId": "solc-0_8_28-dbc90c587c06708166c2604cfee570c0ceacd514"
}